:020000040800F2
:1000000060130020E1010008391100089F0F00086B
:1000100035110008CD060008D936000800000000A0
:100020000000000000000000000000001B3200087B
:10003000CD0B000800000000471200080133000843
:10004000DD3600084512000869330008A5130008D2
:10005000EB0B0008A1130008DD0B0008E10B000802
:10006000E30B0008E50B0008E70B0008010A000895
:10007000030A0008050A0008070A0008090A000820
:100080000B0A00080D0A0008C9060008D53600084A
:10009000D7360008D1060008D3060008E90B00088F
:1000A0006B330008713300086F3300086D330008AC
:1000B000733300087533000877330008A50F000874
:1000C000A30F0008A90F0008A70F000815320008A9
:1000D000173200088D330008C5330008C733000805
:1000E000DF0B0008A3130008D33600087F33000895
:1000F000853300088333000881330008CB060008ED
:10010000ED0B0008111600087933000819320008B9
:1001100087330008893300087B3300087D330008EB
:100120000F0A0008110A0008130A0008150A00083F
:1001300000F002F800F044F80AA090E8000C8244B5
:100140008344AAF10107DA4501D100F039F8AFF292
:10015000090EBAE80F0013F0010F18BFFB1A43F0A5
:1001600001031847983E0000B83E0000103A24BF33
:1001700078C878C1FAD8520724BF30C830C144BF0C
:1001800004680C607047000000230024002500264E
:10019000103A28BF78C1FBD8520728BF30C148BFEA
:1001A0000B607047642900F07180782900F0AA8004
:1001B000002070471FB503F0B7FD1FBD10B510BD7F
:1001C00000F04FFA1146FFF7F5FF03F0B3FA00F025
:1001D0006DFA03B4FFF7F2FF03BC03F087FA0000E7
:1001E0000948804709480047FEE7FEE7FEE7FEE7CB
:1001F000FEE7FEE7FEE7FEE7FEE7FEE70448054907
:10020000054A064B7047000005330008310100081D
:10021000600D002060130020600F0020600F0020A0
:10022000704700000FB4044910B503AA029800F00B
:10023000A1F910BC5DF814FB0C00002070B5044659
:10024000856900683026C10600D42026C00708D082
:1002500070BDD4E9012130469047206A00F10100C9
:1002600020626D1EF5D570BD70B5044685690068C5
:10027000C00708D170BDD4E9012120209047206A31
:1002800000F1010020626D1EF5D570BD2DE9F04131
:100290000746002510687529394616A411D0AFF31A
:1002A0000080002803DAC0F1000013A407E03968D9
:1002B0008A0701D511A402E0490704D510A401253D
:1002C00001E0AFF3008000210A2307F1240607E0D4
:1002D000B0FBF3F203FB1200303070541046491C9F
:1002E0000028F5D12B4622463846BDE8F04100F003
:1002F000E5B80000000000002D0000002B00000009
:100300002000000070B504460D4621461068AFF38A
:1003100000802168090502D5104A7A4402E00F4A9C
:100320007A440E32002104F1240307E000F00F06A6
:100330004FEA1010965D5E5401F101010028F5D1DD
:1003400020680023000704D5702D02D009B11132B6
:1003500002232046BDE8704000F0B0B8A33C000086
:100360002DE9F05F044689464FF0000ADFF830B10E
:10037000FB44C0F820A02046E168884700287ED0D2
:10038000252806D0D4E901219047206A401C20622C
:10039000F1E700255F462046E168884720280646A9
:1003A00009DB312E07D207EB060010F8200C10B144
:1003B00028430546EFE7A80701D525F00405C4F852
:1003C0001CA00027C4F818A02A2E09D0304603F03C
:1003D00086F950B304EB8700303E804686611CE00E
:1003E000D9F8001004EB870209F1040091618146FD
:1003F0002046E1688847012F064618D1E0690028A9
:1004000020DA25F020051DE0D8F8180000EB800068
:1004100006EB40003038C8F818002046E1688847ED
:10042000064603F05CF90028EED1012F0AD02E2EEB
:1004300008D12046E16888477F1C0646022F45F018
:100440002005C1DBA069002803DA404245F0010520
:10045000A061E80701D025F0100586B1A6F14100A2
:10046000192802D8203645F400654A463146204610
:1004700025604D46FFF796FE60B1012800E00BE0D5
:1004800005D0ED1D25F007000830814673E72D1DCE
:10049000A94670E7304675E7206ABDE8F09F000086
:1004A000753C000002F0FF0343EA032242EA0242E5
:1004B00000F074B870477047704770472DE9F047F7
:1004C00004460D469246994600F124008046216874
:1004D000880604D5E06921F01001216000E00120C8
:1004E0000027A84201DDA0EB0507A16907EB050283
:1004F00002EB0300A1EB0000A0612068C00602D45B
:100500002046FFF79BFE002608E0D4E901211AF8F7
:1005100006009047206A401C761C20624E45F4DBA2
:100520002068C0060AD52046FFF788FE06E0D4E919
:10053000012130209047206A401C2062381EA7F11C
:100540000107F4DC07E0D4E9012118F80500904721
:10055000206A401C2062281EA5F10105F3DC20461C
:10056000FFF782FE21680220090600D40120BDE8C1
:10057000F0870000074B70B50C467B4400F033F861
:100580000546204600F042F810B14FF0FF3070BD34
:10059000284670BD933100004FF000020429C0F0DE
:1005A000128010F0030C00F03780CCF1040CBCF189
:1005B000020F18BF00F8012BA8BF20F8022BA1EBF7
:1005C0000C0100F029B85FEAC17C24BF00F8012BC0
:1005D00000F8012B48BF00F8012B704701694A1C45
:1005E00002610878704700B58FB0CDE90131002174
:1005F000059105497944CDE9031011466846FFF796
:10060000AFFE0FB000BD0000E5FFFFFFC06800F0C7
:10061000800070474FF0000200B51346944696469E
:10062000203922BFA0E80C50A0E80C50B1F1200105
:10063000BFF4F7AF090728BFA0E80C5048BF0CC0B3
:100640005DF804EB890028BF40F8042B08BF704711
:1006500048BF20F8022B11F0804F18BF00F8012B83
:100660007047754600F028F8AE46050069465346C7
:1006700020F00700854618B020B5FFF7BFFDBDE8A4
:1006800020404FF000064FF000074FF000084FF0F9
:10069000000B21F00701AC46ACE8C009ACE8C0098A
:1006A000ACE8C009ACE8C0098D4670470446AFF31A
:1006B00000802046FFF78DFD00487047000D0020A8
:1006C00000487047040D00207047704700BFFEE7E8
:1006D0007047704770B54FF02A00054642F210701F
:1006E000044602E0A4F10100044624B1802000F099
:1006F00057FF0028F6D024B94FF0030005462846DE
:1007000070BD40F2FF5000F0F9FE2846F8E7000007
:100710002DE9F04106464FF02A0007464B48406B52
:10072000054602E04948406B054615F0450FF9D0F3
:1007300015F0040F09D04FF0030007464FF00400F6
:1007400000F0DCFE3846BDE8F08115F0010F06D060
:100750004FF00100074600F0D1FE3846F3E700F005
:1007600019FFB04204D04FF0100007463846EAE7C0
:1007700040F2FF5000F0C2FE002000F03DFF0446B2
:100780003348044201D13846DDE714F0004F01D070
:100790001C20D8E714F0804F01D00920D3E714F0D3
:1007A000005F01D00A20CEE714F0805F01D00B205B
:1007B000C9E714F0006F01D00C20C4E714F0806F7B
:1007C00001D00D20BFE714F0807F01D00E20BAE7E2
:1007D00014F4000F01D00F20B5E714F4800F01D0FE
:1007E0001020B0E714F4001F01D01120ABE714F47F
:1007F000801F01D01220A6E714F4002F01D013208F
:10080000A1E714F4802F01D014209CE714F4003FDA
:1008100001D0152097E714F4803F01D0162092E70D
:1008200014F4004F01D017208DE714F4804F01D04D
:10083000182088E714F4005F01D0192083E714F032
:10084000080F01D01A207EE738467CE7008001407F
:1008500008E0FFFD70B54FF02A0005461248406BD6
:10086000044602E01048406B044614F0450FF9D0EE
:1008700014F0040F08D04FF0030005464FF00400B9
:1008800000F03CFE284670BD14F0010F06D04FF07A
:100890000100054600F032FE2846F4E740F2FF5022
:1008A00000F02CFE2846EEE70080014070B54FF0C6
:1008B0002A0005460D48406B044602E00B48406B99
:1008C000044614F0450FF9D014F0040F08D04FF08F
:1008D000030005464FF0040000F010FE284670BDEE
:1008E00040F2FF5000F00AFE2846F8E70080014081
:1008F0002DE9F04106460F464FF02A008046254874
:10090000406B054602E02348406B054615F0450F55
:10091000F9D015F0040F09D04FF0030080464FF0D6
:10092000040000F0EBFD4046BDE8F08115F0010F3A
:1009300006D04FF00100804600F0E0FD4046F3E7AE
:1009400000F028FEB04204D04FF010008046404630
:10095000EAE740F2FF5000F0D1FD002000F04CFE2D
:10096000044614F4604F04D14FEA144038804046E6
:10097000DAE714F4005F01D01320D5E714F4804FB8
:1009800001D01020D0E714F4004F01D00F20CBE7A6
:100990004046C9E70080014070B54FF02A00064686
:1009A00042F2107005461548406B044605E0A5F17B
:1009B000010005461148406B044614F0450F01D173
:1009C000002DF4D115B114F0040F08D04FF003003E
:1009D00006464FF0040000F091FD304670BD14F063
:1009E000400F08D04FF02A0006464FF0400000F0BC
:1009F00085FD3046F2E73046F0E700000080014018
:100A0000704770477047704770477047704770472E
:100A1000704770477047000010F0805F02D00349B4
:100A2000086001E002494860704700000404024089
:100A30000000024021B1026842F00102026005E0BC
:100A400002684FF6FE7302EA03020260704700007C
:100A500001464FF0000318461A4611F0805F03D09C
:100A6000084B1B681A4602E0074B1B681A460A42ED
:100A700003D04FF00103184602E04FF00003184680
:100A800070470000000402400000024010B54FF023
:100A900000031A4603681A4647F6F07322EA030376
:100AA0001A460C6A8B6843EA04030C6943EA0403A0
:100AB0004C6943EA04038C6943EA0403CC6943EAC2
:100AC00004034C6A43EA04038C6A43EA040343EADE
:100AD00002031A460260CB6843600B6883604B6870
:100AE000C36010BD30B58BB005460C461748FFF704
:100AF00093FF00211648FFF79DFF164800900195CF
:100B00004FF0000002904FEA940003904FF0000075
:100B100004904FF0800005904FF4007006904FF461
:100B2000006007904FF0000008904FF400500990CB
:100B30004FF000000A9069460548FFF7A7FF012122
:100B40000348FFF777FF0BB030BD000000F0001046
:100B5000440402408080014030B58BB005460C460D
:100B60001748FFF759FF00211648FFF763FF1648A3
:100B7000009001954FF0100002904FEA940003900E
:100B80004FF0000004904FF0800005904FF400708B
:100B900006904FF4006007904FF0000008904FF46B
:100BA000005009904FF000000A9069460548FFF791
:100BB0006DFF01210348FFF73DFF0BB030BD000082
:100BC00000F000104404024080800140704702E0C1
:100BD000A0F1010108460028FAD17047704770471C
:100BE0007047704770477047704770477047000004
:100BF0002DE9FC4107460D464FF0000006464FF038
:100C00002A0004464FF00000009001904FF00800C9
:100C1000694908604FF0100048604FF0400088605C
:100C20004FF00000C8604FF480600861084600F093
:100C30002FFD1020FFF76CFD04462A2C02D0204621
:100C4000BDE8FC815D4800684FEA00405A490860F1
:100C50004FF0370048604FF0400088604FF00000D0
:100C6000C8604FF480600861084600F011FD37202D
:100C7000FFF74EFD04462A2C01D02046E0E75048FD
:100C8000504908604FF0080048604FF0300088601D
:100C90004FF00200C8604FF0000008614FF0010003
:100CA0004861084600F042FC4FF0000042490860ED
:100CB0004FF0330048604FF0400088604FF0000074
:100CC000C8604FF480600861084600F0E1FC332002
:100CD000FFF71EFD04462A2C01D02046B0E70BE0AA
:100CE0004FF4001000F05CFC30B100F0CBFC4DF88C
:100CF000260006F1010006463348406B40F22A61A7
:100D00000842EDD0082000F04BFC38B1082000F07C
:100D1000F5FB4FF004000446204691E7022000F066
:100D20003FFC38B1022000F0E9FB4FF0020004461E
:100D3000204685E7202000F033FC38B1202000F069
:100D4000DDFB4FF006000446204679E74FF40070C3
:100D500000F026FC40B14FF4007000F0CFFB4FF0E4
:100D60000700044620466BE740F2FF5000F0C6FB48
:100D700000984FEA0060009901F47F4140EA0120A9
:100D8000009901F47F0140EA1120009940EA1160C6
:100D9000686001984FEA0060019901F47F4140EAE0
:100DA0000120019901F47F0140EA1120019940EAF4
:100DB00011602860204643E7D40C00201400002076
:100DC000FFFF0F00E80C00200080014008B5012162
:100DD000082000F04BFA4FF47040ADF800004FF0DF
:100DE00003008DF802004FF010008DF803006946F3
:100DF000014800F025F808BD000C014008B50121AC
:100E0000302000F033FA4FF4F850ADF800004FF006
:100E100003008DF802004FF018008DF803006946BA
:100E2000054800F00DF84FF00400ADF800006946E9
:100E3000024800F005F808BD001001400014014010
:100E40002DE9F04102464FF0000C654666466046CB
:100E500063466446674691F803C00CF00F0C654684
:100E600091F803C01CF0100F04D091F802C04CEAB6
:100E7000050C6546B1F800C01CF0FF0F3FD0D2F85A
:100E800000C064464FF0000C604635E04FF0010CA6
:100E90000CFA00FC6346B1F800C00CEA030C66468D
:100EA0009E4226D14FEA800C63464FF00F0C0CFA9D
:100EB00003FC674624EA070C644605FA03FC4CEA87
:100EC000040C644691F803C0BCF1280F06D14FF022
:100ED000010C0CFA00FCC2F814C00AE091F803C03F
:100EE000BCF1480F05D14FF0010C0CFA00FCC2F820
:100EF00010C000F1010C60460828C7D31460B1F897
:100F000000C0BCF1FF0F44DDD2F804C064464FF0CE
:100F1000000C60463AE000F1080C4FF0010808FAB6
:100F20000CF84346B1F800C00CEA030C66469E423A
:100F300029D14FEA800C63464FF00F0C0CFA03FCEA
:100F4000674624EA070C644605FA03FC4CEA040CE5
:100F5000644691F803C0BCF1280F07D100F1080CDA
:100F60004FF0010808FA0CF8C2F8148091F803C099
:100F7000BCF1480F07D100F1080C4FF0010808FA46
:100F80000CF8C2F8108000F1010C60460828C2D3AA
:100F90005460BDE8F081416170470161704700BF56
:100FA000FEE7704770477047704700002DE9F04139
:100FB00006464FF02A0007464FF00000044605465B
:100FC000584800684FEA0040574908604FF00D004C
:100FD00048604FF0400088604FF00000C8604FF458
:100FE00080600861084600F053FB5048406B05469E
:100FF00002E04E48406B054615F0450FF9D015F05C
:10100000040F09D04FF0030007464FF0040000F032
:1010100075FA3846BDE8F08115F0010F06D04FF0A3
:101020000100074600F06AFA3846F3E700F0B2FA2A
:1010300005460D2D04D04FF0100007463846E9E76D
:1010400040F2FF5000F05AFA002000F0D5FA0446B2
:10105000C4F3432030703648044201D13846D9E702
:1010600014F0004F01D01C20D4E714F0804F01D0C1
:101070000920CFE714F0005F01D00A20CAE714F07E
:10108000805F01D00B20C5E714F0006F01D00C2069
:10109000C0E714F0806F01D00D20BBE714F0807F13
:1010A00001D00E20B6E714F4000F01D00F20B1E7F5
:1010B00014F4800F01D01020ACE714F4001F01D00D
:1010C0001120A7E714F4801F01D01220A2E714F426
:1010D000002F01D013209DE714F4802F01D014209D
:1010E00098E714F4003F01D0152093E714F4803FF3
:1010F00001D016208EE714F4004F01D0172089E7A5
:1011000014F4804F01D0182084E714F4005F01D05C
:1011100019207FE714F0080F01D01A207AE738462B
:1011200078E7000014000020D40C0020008001406B
:1011300008E0FFFD00BFFEE7704708B54FF4C06050
:1011400000F076F84FF031008DF800004FF000000D
:101150008DF801008DF802004FF001008DF80300BA
:10116000684600F015F84FF025008DF800004FF0AC
:1011700001008DF801004FF000008DF802004FF0E3
:1011800001008DF80300684600F002F808BD000079
:1011900070B54FF00004214623464FF00F0422465D
:1011A000C4787CB31F4C246804F4E064C4F5E064A4
:1011B0004FEA14242146C1F10404234622FA01F423
:1011C0002246447804FA03F42146847804EA0204AF
:1011D00044EA010421464FEA01142146124C0678E4
:1011E000A155047804F01F054FF0010404FA05F43A
:1011F00005784FEA65154FF0E02606EB8505C5F842
:1012000000410DE0FFE7047804F01F054FF00104F2
:1012100004FA05F4054D06784FEA661645F82640AF
:1012200070BD00000CED00E000E400E080E100E0B3
:10123000024940EA0101024A116070470000FA05C4
:101240000CED00E07047704731B1074A526942EA3D
:101250000002054B5A6105E0034A526922EA000286
:10126000014B5A61704700000010024031B1074A3B
:10127000926942EA0002054B9A6105E0034A9269CD
:1012800022EA0002014B9A61704700000010024000
:1012900030B54FF0000529462A462C462B463B4DDB
:1012A0006D6805F00C05294621B1042905D00829EF
:1012B0002AD105E0364D056029E0354D056026E070
:1012C000324D6D6805F470152A46304D6D6805F491
:1012D00080352C464FF0020505EB92452A4624B98D
:1012E0002C4D02FB05F505600DE0284D6D6815F4E9
:1012F000003F04D0274D02FB05F5056003E0244DB7
:1013000002FB05F5056002E0214D056000BF00BF4E
:101310001E4D6D6805F0F00529464FEA1115294666
:101320001D4D6D5C2B46056825FA03F54560174D8C
:101330006D6805F4E06529464FEA11252946164DEA
:101340006D5C2B46456825FA03F585600F4D6D6889
:1013500005F4605529464FEAD12529460E4D6D5CAE
:101360002B46456825FA03F5C560084D6D6805F400
:10137000404529464FEA91352946084D6D5C2B467C
:10138000C568B5FBF3F5056130BD000000100240F3
:1013900000127A0000093D003800002048000020BB
:1013A00070477047704700007CB505464FF02A0033
:1013B00004464FF000000090019000F01DF910F07D
:1013C000007F04D04FF00E00044620467CBD6946E5
:1013D0004848006880B2FFF70BFC04462A2C01D075
:1013E0002046F3E7012D42D1019810F4802F39D027
:1013F000404800684FEA00403F4908604FF037001E
:1014000048604FF0400088604FF00000C8604FF423
:1014100080600861084600F03BF93720FFF778F953
:1014200004462A2C01D02046D0E74FF00200324972
:1014300008604FF0060048604FF0400088604FF0B1
:101440000000C8604FF480600861084600F020F991
:101450000620FFF75DF904462A2C01D02046B5E7A7
:101460002046B3E74FF0250004462046AEE701983A
:1014700010F4803F39D01F4800684FEA00401E49F1
:1014800008604FF0370048604FF0400088604FF030
:101490000000C8604FF480600861084600F0F8F86A
:1014A0003720FFF735F904462A2C01D020468DE776
:1014B0004FF00000104908604FF0060048604FF000
:1014C000400088604FF00000C8604FF48060086101
:1014D000084600F0DDF80620FFF71AF904462A2C2A
:1014E00001D0204672E7204670E74FF02500044601
:1014F00020466BE714000020D40C002001498863CB
:101500007047000000800140014988637047000077
:10151000008001400149086070470000A00030428F
:1015200001490860704700008C0530424FF000020E
:1015300011460D4B02685A6242689A621A46D26A94
:10154000114621F0F7021146D0E9022342EA0302D4
:10155000036942EA0302436942EA030242EA0102E2
:101560001146014AD1627047008001404FF00000EF
:101570000649086048608860C86048628862C8623E
:10158000034888634FF00000C86370470080014043
:10159000FF07C00001480069C0B2704700800140E9
:1015A00001464FF000021046054A526B0A4203D032
:1015B0004FF00102104602E04FF000021046704763
:1015C0000080014001464FF000021046054A526B70
:1015D0000A4203D04FF00102104602E04FF0000231
:1015E00010467047008001400248006800F0030088
:1015F000704700000080014001464FF000000246A5
:1016000002480844024610687047000014800140F8
:1016100010B500F025FD10BD31B1074AD26B42EA8A
:101620000002054BDA6305E0034AD26B22EA0002AE
:10163000014BDA6370470000008001404FF0000268
:1016400011460F4A5268114647F6FF6221EA02022C
:101650001146027D836842EA0302436842EA0302BC
:10166000C36842EA0302036842EA0302036942EAEA
:10167000030242EA01021146014A5160704700002C
:1016800000800140014800687047000080800140F0
:101690004FF0000211460D4B02689A601A46D2685C
:1016A00011464FEAD1224FEAC2221146D0E9012366
:1016B00042EA0302C36842EA0302036942EA030200
:1016C00042EA01021146014AD160704700800140A0
:1016D0000549096821F00301034A116011460968B0
:1016E00041EA000111607047008001400149086033
:1016F000704700008080014070B504464FF02A001A
:10170000054627480068032804D14FF02700054606
:10171000284670BD2248006838B121480068012879
:1017200003D01F480068022837D1B4F5805F04D188
:101730004FF0270005462846EBE7B4F5006F18D1B7
:101740000120FFF731FE05462A2D26D14FF001007A
:10175000144908754FF000000860486088604FF435
:101760000060C8604FF0000008610846FFF766FFA0
:1017700013E00020FFF718FE05462A2D0DD14FF08B
:101780000100084908754FF0000008604860886053
:10179000C86008610846FFF751FF2846B9E7000016
:1017A00010000020BC0C00202DE9F84305460E4631
:1017B0004FF02A0004464FF0000007468046009094
:1017C000514840684FF0200111EA105F05D14FF0F9
:1017D000250004462046BDE8F8834C484068C0B266
:1017E00000F102004A49B1FBF0F080464FF00000E2
:1017F000FFF702FF10F0007F04D04FF00E00044608
:101800002046E8E743480068022805D14FEA552002
:1018100005464FEA562006463E48006838B13D4826
:101820000068012803D03B480068022833D13A48B9
:1018300005604FF02000384948604FF04000886054
:101840004FF00000C8604FF4806008610846FFF761
:101850001FFF2020FEF75CFF04462A2C01D0204603
:10186000B9E72D4806604FF021002B4948604FF042
:10187000400088604FF00000C8604FF4806008614D
:101880000846FFF705FF2120FEF742FF04462A2CF9
:1018900001D020469FE74FF000001F4908604FF03D
:1018A000260048604FF0400088604FF00000C8609C
:1018B0004FF4806008610846FFF7EAFE2620FEF735
:1018C00027FF04462A2C01D0204684E74FF0000071
:1018D000074602E007F1010007464745FAD368468C
:1018E000FFF764FB044603E06846FFF75FFB04462E
:1018F0002A2C07D19DF800000728F5D09DF800009C
:101900000628F1D0204666E79C0C002000800140AC
:101910004019010010000020D40C002030B5014611
:101920004FF02A0318464FF000031A46E14B1B689C
:1019300081F84E30E04B1B68A1F84C30DF4B1B6840
:101940004FEA13631A464FEA92130B70C2F38303F4
:101950004B7002F003038B70D84B1B68C3F3074333
:101960001A46CA70D54B1B68C3F307231A460A717F
:10197000D24B1B68DBB21A464A71D04B5B684FEA08
:1019800013631A464FEA0213CB80CC4B5B68C3F358
:1019900007431A46CB8843EA1213CB8002F00F03A9
:1019A0000B72C64B5B68C3F307231A464FEAD21388
:1019B0004B72C2F380138B72C2F34013CB72C2F32B
:1019C00000130B734FF000034B73BA4B1B681BB132
:1019D000B84B1B68012B4FD14FEA82734FEA135368
:1019E0000B61B64B5B68DBB21A460B6943EA8203B4
:1019F0000B61B24B9B684FEA13631A460B6943EACB
:101A000092130B61C2F3C2030B7502F007034B750F
:101A1000AA4B9B68C3F307431A464FEA52138B75D0
:101A2000C2F38203CB754FEA82734FEA53730B768E
:101A3000A24B9B68C3F307231A460B7E43EAD213DB
:101A40000B760B6903F101034B640C7E4B6C04F1C4
:101A500002044FF0010505FA04F503FB05F34B649E
:101A60000C7A4FF0010303FA04F38B64D1E91134CB
:101A700003FB04F34B642CE08E4B1B68022B28D134
:101A80008E4B5B68DBB21A464FEA82634FEA9323C0
:101A90000B618A4B9B684FEA13631A460B6943EA52
:101AA00002230B61854B9B68C3F307431A460B69FE
:101AB00043EA02030B61814B9B68C3F307231A4679
:101AC0000B6903F101034FEAC3434B644FF4007306
:101AD0008B64C2F3801301F8193F4FEA82634FEA27
:101AE00053634B70754B9B68DBB21A464B7843EAE5
:101AF000D2134B7002F07F038B70704BDB684FEAA0
:101B000013631A464FEAD213CB70C2F341130B7121
:101B1000C2F382034B714FEA82734FEA13738B71E6
:101B2000664BDB68C3F307431A468B7943EA92138B
:101B30008B71C2F34013CB714FF000030B7202F0B4
:101B400001034B725D4BDB68C3F307231A464FEA70
:101B5000D2138B72C2F38013CB72C2F340130B7398
:101B6000C2F300134B73C2F381038B7302F00303C0
:101B7000CB73524BDB68DBB21A464FEA52030B744D
:101B80004FF001034B744E4B1B684FEA13631A4628
:101B9000CA74A1F119014A4B1B68C3F307431A46E3
:101BA0004FEA0223CB85464B1B68C3F307231A4633
:101BB000CB8D43EA0203CB85414B1B68DBB21A464F
:101BC0004FEA02640C633E4B5B684FEA13631A46AC
:101BD0000B6B43EA02440C63394B5B68C3F3074366
:101BE0001A460B6B43EA02240C63354B5B68C3F364
:101BF00007231A460B6B43EA02030B63304B5B6807
:101C0000DBB21A464FF034035A542D4B9B684FEA0F
:101C100013631A464FF035035A54294B9B68C3F39C
:101C200007431A464FEA02648C63254B9B68C3F353
:101C300007231A468B6B43EA02448C63204B9B6854
:101C4000DBB21A468B6B43EA02248C631C4BDB68C5
:101C50004FEA13631A468B6B43EA02038B63184BFC
:101C6000DB68C3F307431A464FF03C035B5C43EA6F
:101C700012134FF03C0463544FEA02734FEA1353BC
:101C8000CB870F4BDB68C3F307231A46CB8F43EA9E
:101C90000203CB870A4BDB68DBB21A464FEA5203DA
:101CA0004FF0400463544FF001044FF041035C5483
:101CB00030BD000010000020140000209C0C00200B
:101CC000AC0C002010B54FF02A000446FFF796F840
:101CD00001218802FFF7B8FA01210220FFF7B4FAC8
:101CE000FFF744FC00F0D2F804462A2C01D020462D
:101CF00010BD00F017F804462A2C01D02046F7E763
:101D00004FF00100064908754FF000000860486078
:101D10008860C86008610846FFF790FC2046E7E746
:101D2000BC0C002038B54FF02A0004464FF00100EB
:101D30000090FFF759FC20B94FF0250004462046DB
:101D400038BD4D48006804282DD04FF000004B49A5
:101D500008604FF0020048604FF0C00088604FF00C
:101D60000000C8604FF4806008610846FFF790FCEF
:101D7000FEF770FD04462A2C01D02046E0E7002043
:101D8000FFF73AFC3E4908600420FFF735FC3C4968
:101D900048600820FFF730FC394988600C20FFF7C5
:101DA0002BFC3749C8603448006858B13248006895
:101DB000012807D030480068062803D02E48006864
:101DC00002281BD14FF000002C4908604FF003009F
:101DD00048604FF0400088604FF00000C8604FF44A
:101DE000806008610846FFF753FC69460320FEF750
:101DF0007FFD04462A2C01D02046A1E71E4800683A
:101E0000042833D0BDF800001E490860BDF800006A
:101E10004FEA0040194908604FF0090048604FF050
:101E2000C00088604FF00000C8604FF48060086117
:101E30000846FFF72DFCFEF70DFD04462A2C01D0C5
:101E400020467DE70020FFF7D7FB0F4908600420FC
:101E5000FFF7D2FB0C4948600820FFF7CDFB0A4989
:101E600088600C20FFF7C8FB0749C8604FF02A00C4
:101E70000446204664E7000010000020D40C002037
:101E8000AC0C0020140000209C0C00202DE9F04137
:101E90004FF02A0004464FF000000646054607466C
:101EA00080464FF0B2006A4908754FF000000860A4
:101EB00048608860C86008610846FFF7BFFB0320E0
:101EC000FFF706FC0120FFF725FB4FF000006149FA
:101ED000086048608860C8604FF480600861084608
:101EE000FFF7D6FBFEF7F6FB04462A2C02D020466D
:101EF000BDE8F0814FF4D570564908604FF00800F6
:101F000048604FF0400088604FF00000C8604FF418
:101F1000806008610846FFF7BBFBFEF73DFD044605
:101F20002A2C07D14FF001004B4908604FF0804048
:101F3000804616E04FF00000464908604FF0370039
:101F400048604FF0400088604FF00000C8604FF4D8
:101F5000806008610846FFF79BFB3720FEF7D8FB3F
:101F600004464FF000003B4908604FF037004860DE
:101F70004FF0400088604FF00000C8604FF4806070
:101F800008610846FFF784FB3720FEF7C1FB0446D3
:101F90002A2C5AD143E04FF000002E4908604FF040
:101FA000370048604FF0400088604FF00000C86084
:101FB0004FF4806008610846FFF76AFB3720FEF7A0
:101FC000A7FB04462A2C01D0204691E7234848EA83
:101FD0000000204908604FF0290048604FF04000A1
:101FE00088604FF00000C8604FF4806008610846C8
:101FF000FFF74EFBFEF75AFC04462A2C01D0204680
:1020000076E70020FFF7F8FA06464FF0010080EA75
:10201000D67080F00100074605F1010005461FB9A2
:102020004FF6FF708542B6D34FF6FF70854204D35A
:102030004FF01B00044620465AE706F08040060099
:1020400003D04FF0020004490860204650E700002A
:10205000BC0C0020D40C00201000002000001080D8
:1020600070B54FF00000044605469D480068012801
:102070001ED1C003FFF7A6FAD8B14FF00000044606
:1020800008E0FFF7FFFA9749096841F8240004F1D6
:1020900001000446082CF4D39248006800F12000A7
:1020A000904908609048006800F120008E4908605F
:1020B00061E04FF48040FFF785FA00285BD08B4841
:1020C000006889490968401A202838D28748006882
:1020D00085490968A0EB010010F0030F08D183487F
:1020E000006881490968A0EB01004FEA900009E00F
:1020F0007E4800687C490968A0EB01004FEA900027
:1021000000F1010005464FF00000044614E0784954
:10211000096809680846FFF7E9FA04F10100044676
:102120007348006800F10400714908606E48006857
:1021300000F104006C490860AC42E8D31BE04FF0AA
:102140000000044609E06A49096851F8241008466D
:10215000FFF7CCFA04F101000446082CF3D36448DD
:10216000006800F12000624908605F48006800F1E3
:1021700020005D4908604FF48070FFF723FAF0B348
:1021800057480068E0B110E0FFF77CFA554909684C
:1021900008605448006800F1040052490860524841
:1021A000006800F10400504908604FF40010FFF788
:1021B000F7F928B14C4800684C4909688842E3D3D4
:1021C0004C480068012804D100F0C4FB4A4908705B
:1021D00003E04FF02A00484908704FF48070FFF781
:1021E00093F900214CF23A30FFF716FA4FF0010054
:1021F000424908604FF000003B49086000E002E0FF
:102200003D48007870BD0220FFF7DCF980B1022064
:10221000FFF77AF900214CF23A30FFF7FDF94FF061
:102220000000314908604FF0020033490870E9E7C7
:102230000820FFF7C7F980B10820FFF765F90021F2
:102240004CF23A30FFF7E8F94FF0000026490860F9
:102250004FF0040028490870D4E72020FFF7B2F9B6
:1022600080B12020FFF750F900214CF23A30FFF7FF
:10227000D3F94FF000001C4908604FF006001E49DA
:102280000870BFE71020FFF79DF980B11020FFF71D
:102290003BF900214CF23A30FFF7BEF94FF0000055
:1022A000114908604FF0050013490870AAE74FF480
:1022B0000070FFF787F988B14FF40070FFF724F939
:1022C00000214CF23A30FFF7A7F94FF00000064921
:1022D00008604FF007000849087093E72A2091E74B
:1022E00018000020340000202C0000201C000020DA
:1022F00030000020200000202400002028000020C2
:102300002DE9F04707460D4614464FF02A00804657
:102310004FF0000081462E4682462DB94FF0260030
:1023200080464046BDE8F0874FF02A009249087089
:102330004FF0000091490860914908609148924926
:1023400008604FF0000048608860C860086148611C
:102350000846FFF7EBF80020FFF7E2F80020FFF750
:102360004BF910F0007F04D04FF00E00804640463D
:10237000D8E786480068022805D14FF4007004466B
:102380004FEA57200746002C25DDB4F5006F22DC0C
:10239000A4F1010020421ED1204601F0AAF9824694
:1023A0007B4804604FF01000794948604FF04000CE
:1023B00088604FF00000C8604FF4806008610846F4
:1023C000FFF766F91020FEF7A3F98046B8F12A0F4F
:1023D00006D04046A6E74FF0260080464046A1E7DB
:1023E000684869490860084644604FEA0A108860F6
:1023F0004FF00200C8604FF0000008614FF001008C
:1024000048610846FFF792F85D4804604FF000000D
:1024100060490860604805605D4807604FF0110042
:102420005B4948604FF0400088604FF00000C86092
:102430004FF4806008610846FFF72AF91120FEF783
:1024400067F98046B8F12A0F01D040466AE7534841
:102450000068022860D115E04FF40040FFF7A0F8B3
:1024600080B14FF00000814606E0FFF70BF946F817
:10247000290009F101008146B9F1080FF5D306F1F1
:10248000200006464648406B40F22A610842E3D0ED
:102490000820FFF785F838B10820FFF72FF84FF034
:1024A0000400804640463DE70220FFF779F838B146
:1024B0000220FFF723F84FF002008046404631E744
:1024C0002020FFF76DF838B12020FFF717F84FF004
:1024D00006008046404625E74FF40070FFF760F89D
:1024E00040B14FF40070FFF709F84FF00700804645
:1024F000404617E705E0FFF7C5F8306006F1040035
:1025000006464FF40010FFF74BF80028F3D140F2D5
:10251000FF50FEF7F3FF2CE020480068012813D19C
:10252000012148F22A30FFF777F800BF134800680E
:1025300018B9114800782A28F8D00F4800782A28BE
:1025400017D00D480078EDE61448006888B90121DD
:1025500040F22A30FFF760F80120FEF7E1FF214644
:102560002846FEF7BFFA00BF0E48FEF771FA0028B2
:10257000FAD04046D6E600002400002028000020C3
:102580001C000020FFFF0F00E80C002010000020BE
:10259000D40C00202000002034000020180000206F
:1025A00000800140002000102DE9F05F81460E46BA
:1025B00014461D464FF02A0080464FF00000824628
:1025C000374683462EB94FF0260080464046BDE888
:1025D000F09F4FF02A00BA4908704FF00000B94947
:1025E0000860B9490860B948B94908604FF000006F
:1025F00048608860C860086148610846FEF796FF39
:102600000020FEF78DFF0020FEF7F6FF10F0007FA0
:1026100004D04FF00E0080464046D8E7AD48006831
:10262000022805D14FF4007004464FEA5920814634
:10263000002C25DDB4F5006F22DCA4F1010020425E
:102640001ED1204601F055F88346A34804604FF0A0
:102650001000A14948604FF0400088604FF0000032
:10266000C8604FF4806008610846FFF711F8102039
:10267000FEF74EF88046B8F12A0F06D04046A6E78E
:102680004FF0260080464046A1E7012D71D905FB99
:1026900004F0B0F1007F04D34FF02600804640469E
:1026A00095E705FB04F0884908604FF001008B496D
:1026B00008608B48066085488549086005FB04F082
:1026C00048604FEA0B1088604FF00200C8604FF07E
:1026D000000008614FF0010048610846FEF726FF40
:1026E0007D48C0F800904FF012007B4948604FF0E1
:1026F000400088604FF00000C8604FF480600861BF
:102700000846FEF7C5FF1220FEF702F88046B8F132
:102710002A0F01D040465AE77248006802287ED14D
:1027200015E04FF40040FEF73BFF80B14FF0000092
:10273000824606E0FEF7A6FF47F82A000AF10100EC
:102740008246BAF1080FF5D307F120000746664824
:10275000406B40F22A310842E3D00820FEF720FF08
:1027600040B10820FEF7CAFE4FF004008046404604
:102770002DE7A2E00220FEF713FF38B10220FEF79A
:10278000BDFE4FF002008046404620E72020FEF7C5
:1027900007FF38B12020FEF7B1FE4FF0060080465B
:1027A000404614E74FF40070FEF7FAFE40B14FF4D4
:1027B0000070FEF7A3FE4FF007008046404606E794
:1027C00005E0FEF75FFF386007F1040007464FF4AD
:1027D0000010FEF7E5FE0028F3D14FF48070FEF7FD
:1027E000DFFE40B33B48006838B13A480068022831
:1027F00003D03848006801281DD14FF00000364949
:1028000008604FF00C0048604FF0400088604FF0C7
:102810000000C8604FF480600861084600E00FE0E7
:10282000FEF736FF0C20FDF773FF8046B8F12A0F44
:1028300001D04046CBE640F2FF50FEF75FFE3CE0A1
:1028400028480068012813D1012148F22A30FEF7F8
:10285000E3FE00BF1B48006818B9194800782A2811
:10286000F8D0174800782A2827D015480078AEE617
:102870001C48006808BB012140F22A30FEF7CCFE5C
:102880000120FEF74DFE05FB04F13046FEF72AF964
:1028900000BF1648FEF7DCF80028FAD000BF094850
:1028A000006818B9064800782A28F8D0044800784B
:1028B0002A2802D00248007889E6404687E60000D0
:1028C00024000020280000201C000020FFFF0F0033
:1028D000E80C002010000020D40C00202000002074
:1028E000340000201800002000800140002000106B
:1028F00070B504464FF02A0005460C4804604FF0BE
:1029000007000A4948604FF0400088604FF000001F
:10291000C8604FF4806008610846FEF7B9FE0720E2
:10292000FDF7F6FE0546284670BD0000D40C0020D9
:1029300001464FF02A02104619B1012901D002299F
:1029400002D1034A116002E04FF0260210467047A0
:102950001800002010B54FF02A0004464FF0000088
:102960000B4908604FF00C0048604FF04000886051
:102970004FF00000C8604FF4806008610846FEF721
:1029800087FE0C20FDF7C4FE0446204610BD000063
:10299000D40C00202DE9FF5F82460F4614464FF00D
:1029A0002A0005464FF00000039002908346064639
:1029B000019080460090B94637B94FF02600054691
:1029C000284604B0BDE8F09F4FF02A00E2490870A5
:1029D0004FF00000E1490860E1490860E148E24940
:1029E00008604FF0000048608860C8600861486176
:1029F0000846FEF79BFD0020FEF792FD0020FEF743
:102A0000FBFD10F0007F04D04FF00E000546284675
:102A1000D7E7D6480068022805D14FF40070044675
:102A20004FEA5A208246002C24DDB4F5006F21DCE9
:102A3000A4F1010020421DD1204600F05AFE03906F
:102A4000CB4804604FF01000C94948604FF0400087
:102A500088604FF00000C8604FF48060086108464D
:102A6000FEF716FE1020FDF753FE05462A2D06D070
:102A70002846A6E74FF0260005462846A1E7BD48B0
:102A800000684FEA0040BA4908604FF00D00486006
:102A90004FF0400088604FF00000C8604FF4806045
:102AA00008610846FEF7F4FD0D20FDF731FE0546EE
:102AB0002A2D01D0284684E70020FEF79DFD0190D5
:102AC000A848834623E0ABF101008346A94800688B
:102AD0004FEA0040A64908604FF00D0048604FF0F3
:102AE000400088604FF00000C8604FF480600861CB
:102AF0000846FEF7CDFD0D20FDF70AFE05462A2DFE
:102B000001D028465DE70020FEF776FD0190019890
:102B100010F4807F02D1BBF1000FD4D1BBF1000FC4
:102B200001D129204DE79248C0F800A04FF01800CD
:102B30008F4948604FF0400088604FF00000C86047
:102B40004FF4806008610846FEF7A2FD1820FDF7EB
:102B5000DFFD05462A2D01D0284632E78048046073
:102B60004FF0000084490860844807607D487E4932
:102B700008600846446003984FEA001088604FF0F0
:102B80000000C86008614FF0010048610846FEF788
:102B9000CDFC7B480068022877D14CE04FF48040A0
:102BA000FEF7FEFC88B36E480068801B20282DD2FB
:102BB0006B480068A0EB060010F0030F06D16848D0
:102BC0000068A0EB06004FEA900007E06448006848
:102BD000A0EB06004FEA900000F1010000904FF0DA
:102BE000000080460DE0D9F800100846FEF77EFD93
:102BF00008F10100804609F10400814606F1040055
:102C000006460098804516D2EDE714E04FF000002C
:102C1000804607E059F828100846FEF767FD08F1DE
:102C200001008046B8F1080FF4D309F12000814675
:102C300006F1200006465348406B40F21A610842F4
:102C4000ACD00820FEF7ACFC38B10820FEF756FCEB
:102C50004FF0040005462846B3E60220FEF7A0FC2C
:102C600038B10220FEF74AFC4FF002000546284624
:102C7000A7E61020FEF794FC40B11020FEF73EFCC2
:102C80004FF00500054628469BE60DE04FF4007026
:102C9000FEF786FCF0B34FF40070FEF72FFC4FF008
:102CA0000700054628468CE635480068012813D100
:102CB000012144F21A30FEF7AFFC00BF274800683C
:102CC00018B9254800782A28F8D0234800782A28FF
:102CD00028D02148007874E629480068D0B901213D
:102CE00040F21A30FEF798FC21463846FDF734FFD3
:102CF0000120FEF715FC00BF2348FDF7A9FE0028C0
:102D0000FAD000BF1548006818B9134800782A287F
:102D1000F8D000E006E0104800782A2802D00E48DB
:102D200000784EE640F2FF50FEF7E8FB02A8FEF7FF
:102D30003DF9054603E002A8FEF738F905462A2DBD
:102D400007D19DF808000728F5D09DF8080006284F
:102D5000F1D0284635E6000024000020280000209D
:102D60001C000020FFFF0F00E80C002010000020D6
:102D7000D40C00201400002020000020300000208F
:102D80001800002000800140002000102DE9FE4FB7
:102D90008346884614461E464FF02A0005464FF0EB
:102DA000000002900190074681460090C246B8F1AB
:102DB000000F05D14FF0260005462846BDE8FE8FDE
:102DC0004FF02A00F94908704FF00000F8490860F8
:102DD000F8490860F848F94908604FF00000486079
:102DE0008860C860086148610846FEF79FFB0020C4
:102DF000FEF796FB0020FEF7FFFB10F0007F04D0EB
:102E00004FF00E0005462846D8E7ED480068022836
:102E100005D14FF4007004464FEA5B208346002C36
:102E200024DDB4F5006F21DCA4F1010020421DD1A6
:102E3000204600F05EFC0290E24804604FF0100073
:102E4000E04948604FF0400088604FF00000C860E3
:102E50004FF4806008610846FEF71AFC1020FDF769
:102E600057FC05462A2D06D02846A7E74FF0260036
:102E700005462846A2E7D44800684FEA0040D149F9
:102E800008604FF00D0048604FF0400088604FF040
:102E90000000C8604FF4806008610846FEF7F8FB48
:102EA0000D20FDF735FC05462A2D01D0284685E783
:102EB000012E7ED906FB04F0B0F1007F04D34FF061
:102EC00026000546284679E7BD48006838B1BC4869
:102ED0000068012803D0BA480068022836D1BA48F1
:102EE00000684FEA0040B74908604FF0370048607B
:102EF0004FF0400088604FF00000C8604FF48060E1
:102F000008610846FEF7C4FB3720FDF701FC0546C3
:102F10002A2D01D0284651E7AA4806604FF0170035
:102F2000A84948604FF0400088604FF00000C8603A
:102F30004FF4806008610846FEF7AAFB1720FDF7F2
:102F4000E7FB05462A2D01D0284637E79D48C0F803
:102F500000B04FF019009B4948604FF04000886076
:102F60004FF00000C8604FF4806008610846FEF72B
:102F70008FFB1920FDF7CCFB05462A2D01D02846F2
:102F80001CE706FB04F08B4908604FF001008F49F5
:102F900008608F48C0F8008087488849086006FBB1
:102FA00004F0486002984FEA001088604FF000007B
:102FB00000E015E1C86008614FF001004861084673
:102FC000FEF7B4FA83480068022877D14CE04FF44A
:102FD0008040FEF7E5FAA8B376480068C01B2028B9
:102FE00015D34FF00000814607E05AF82910084633
:102FF000FEF77CFB09F101008146B9F1080FF4D31B
:103000000AF12000824607F1200007462CE06948BB
:103010000068A0EB070010F0030F06D165480068B8
:10302000A0EB07004FEA900007E062480068A0EBC1
:1030300007004FEA900000F1010000904FF00000FF
:1030400081460EE010E0DAF800100846FEF74EFB6D
:1030500009F1010081460AF10400824607F10400EB
:10306000074600988145EED35B48406B40F21A3129
:103070000842ACD00820FEF793FA38B10820FEF7DA
:103080003DFA4FF004000546284697E60220FEF779
:1030900087FA38B10220FEF731FA4FF002000546F8
:1030A00028468BE61020FEF77BFA40B11020FEF791
:1030B00025FA4FF00500054628467FE639E04FF433
:1030C0000070FEF76DFA40B14FF40070FEF716FA8B
:1030D0004FF007000546284670E64FF48070FEF773
:1030E0005FFA00287DD03648006838B1344800685F
:1030F000012803D032480068022872D14FF0000046
:10310000304908604FF00C0048604FF04000886084
:103110004FF00000C8604FF4806008610846FEF779
:10312000B7FA0C20FDF7F4FA05462A2D59D02846A7
:1031300044E628480068012813D1012144F21A30DE
:10314000FEF76AFA00BF1A48006818B917480078F5
:103150002A28F8D0154800782A2842D01348007849
:103160002CE61C480068D8BB012140F21A30FEF75B
:1031700053FA0120FEF7D4F906FB04F14046FDF7AF
:10318000EBFC00BF1548FDF763FC0028FAD000BF38
:103190000748006818B9054800782A28F8D003487D
:1031A00000782A281DD00148007807E62400002076
:1031B000280000201C000020FFFF0F00E80C00206A
:1031C00010000020D40C002014000020200000205B
:1031D0003000002018000020008001400020001076
:1031E000FFE740F2FF50FEF789F901A8FDF7DEFE88
:1031F000054603E001A8FDF7D9FE05462A2D07D1B3
:103200009DF804000728F5D09DF804000628F1D0A9
:103210002846D3E5704770477047704710B500F0F7
:1032200001F810BD4FF0000211461046324A1268F4
:1032300042F48032304B1A6000BF2F4A126802F409
:103240000032104601F10102114610B9B1F5A06F2C
:10325000F3D1294A126812F4003F03D04FF0010263
:10326000104602E04FF000021046012842D1234AE6
:10327000126842F01002214B1A601A46126822F0BE
:1032800003021A601A46126842F002021A601A4AD1
:103290005268194B5A601A4652685A601A46526868
:1032A00042F480625A601A46526822F47C125A60D4
:1032B0001A46526842F4E8125A601A46126842F0FE
:1032C00080721A6000BF0C4A126812F0007FFAD0B8
:1032D000094A526822F00302074B5A601A465268A4
:1032E00042F002025A6000BF034A526802F00C0228
:1032F000082AF9D170470000001002400020024067
:103300007047000010B51448006840F001001249F1
:10331000086008464068114900EA01000E4948600B
:10332000084600680E4900EA01000B49086008469B
:10333000006820F4802008600846406820F4FE0001
:1033400048604FF41F008860FFF768FF4FF000608F
:103350000449086010BD0000001002400000FFF8A2
:10336000FFFFF6FE08ED00E07047704770477047BA
:103370007047704770477047704770477047704795
:1033800070477047704770477047000010B540F2B3
:1033900025510A4800F093F878B1084800F090F9F8
:1033A000C4B22146054800F090F9592C01D0792C7F
:1033B00003D14FF001000249086010BD0038014000
:1033C000000000207047704701F40072B2F5007FE2
:1033D00000D100BF6FEA01020280704721B18289EB
:1033E00042F40052828105E082894DF6FF7302EAC1
:1033F000030282817047000000B585B0012144F2CC
:103400000400FDF733FF4FF40070ADF810004FF0EB
:1034100018008DF813004FF003008DF8120004A976
:103420001B48FDF70DFD4FF48060ADF810004FF024
:1034300004008DF813004FF003008DF8120004A96A
:103440001348FDF7FDFC4FF4E13000904FF0000011
:10345000ADF80400ADF80600ADF80800ADF80C00BA
:103460004FF00C00ADF80A0069460A4800F09AF8DF
:1034700040210848FFF7A8FF012240F225510548E6
:1034800000F05DF801210348FFF7A8FF05B000BD7B
:10349000000801400038014002464FF00003184682
:1034A000B1F5007F00D100BF13880B4203D04FF06D
:1034B0000103184602E04FF000031846704770B54C
:1034C00002464FF000063446334635463046A1F5F5
:1034D00010666A3E00D100BFC1F34216354601F0C6
:1034E0001F0633464FF0010606FA03F63346012D58
:1034F00004D1968906EA030633460AE0022D04D178
:10350000168A06EA0306334603E0968A06EA0306AD
:1035100033464FEA212634464FF0010606FA04F6F8
:103520003446168806EA0406344623B11CB14FF02F
:103530000106304602E04FF00006304670BDF0B59F
:1035400003464FF000073C463E463D463846A1F54F
:1035500010676A3F00D100BF1846C1F342173C46CE
:1035600001F01F073E464FF0010707FA06F73D46F8
:10357000012C03D100F10C07384608E0022C03D1DE
:1035800000F11007384602E000F11407384622B176
:10359000076847EA0507076003E0076827EA0507A9
:1035A0000760F0BD2DE9F04786B005460E464FF0A6
:1035B00000000446824600BF81460746B08900B13C
:1035C00000BF2F46288A04464CF6FF7004EA00002C
:1035D0000446F08840EA040004462C82A889044688
:1035E0004EF6F31004EA00000446B088318940EA40
:1035F0000100718940EA010040EA04000446AC8100
:10360000A88A04464FF6FF4004EA00000446B08949
:1036100040EA04000446AC8201A8FDF739FE2748C1
:10362000874202D10498824601E003988246A88925
:1036300010F4004F09D00AEBCA0000EB0A10316801
:103640004FEA4101B0FBF1F808E00AEBCA0000EBD9
:103650000A1031684FEA8101B0FBF1F84FF06400C5
:10366000B8FBF0F04FEA001004464FEA14104FF098
:10367000640101FB10808146A88910F4004F0BD033
:103680004FF0320000EBC900B0FBF1F000F0070092
:1036900040EA040004460CE04FF0320000EB091051
:1036A0004FF06401B0FBF1F000F00F0040EA0400BD
:1036B00004462C8106B0BDE8F087000000380140C8
:1036C00001468888C0F308007047C1F30802828071
:1036D000704770477047704700BFFEE7704701466C
:1036E000012030390A2900D300207047014600BF6D
:1036F000704701464FF00002104606E04FEA6102B3
:10370000114600F10102D2B210460129F6D17047EC
:1037100070B504460D46E1B20548FFF7D6FF00BF7D
:1037200040210348FFF7B8FE0028F9D0204670BDBD
:103730000038014008B5FDF749FBFFF75DFE0121A8
:103740004020FDF793FD4FF00400ADF800004FF06E
:1037500003008DF802004FF048008DF80300694621
:10376000C048FDF76DFBFDF7E8FCBF48FCF75AFDCC
:1037700000BFBE4800680028FBD0FEF7A3FABC4992
:10378000087008460178BBA0FCF74CFDB8480078EB
:103790002A280CD1C1A0FCF745FDCC48FEF7BEF8A5
:1037A000B349087008460178C9A0FCF73BFDB04852
:1037B00000782A2818D1C54890F84E000246C34820
:1037C000806C0146A8485030FCF72CFDBF49B1F889
:1037D0004C1009040846FFF78BF8A5490870084605
:1037E0000178C5A0FCF71EFDA14800782A280DD15C
:1037F000CBA0FCF717FD4FF40060FDF77DFF9C495F
:10380000087008460178D1A0FCF70CFD98480078B4
:103810002A280ED1D9A0FCF705FD4FF40071002035
:10382000FDF7C2FF9249087008460178E1A0FCF755
:10383000F9FC8F4800782A280ED100218A48AC3044
:10384000FCF7F0FC0020FFF773F889490870084680
:103850000178E0A0FCF7E6FC854800782A2815D11D
:10386000E6A0FCF7DFFCFE224FF48061EF48FCF796
:1038700019FE02231A02ED490020FEF795FE7C494D
:10388000087008460178EAA0FCF7CCFC784800787C
:103890002A2817D100217448F830FCF7C3FC4FF0F8
:1038A00000040AE0E14850F8240002462146EBA05B
:1038B000FCF7B8FC04F101000446FF2CF2D9D9A0B2
:1038C000FCF7B0FC88224FF40071E848FCF7EAFDF1
:1038D000674800782A280CD14FF40072E349002091
:1038E000FFF758F86249087008460178E0A0FCF735
:1038F00099FC5F4800782A2810D10021E548FCF7A0
:1039000091FC4FF40072E4490020FEF7F9FC58499D
:10391000087008460178E1A0FCF784FC5448007860
:103920002A2818D10021DB484C30FCF77BFC4FF0F3
:10393000000004460AE0D84850F824000246214618
:10394000C6A0FCF76FFC04F101000446802CF2D302
:10395000B4A0FCF767FC66224FF48061D848FCF7FE
:10396000A1FD434800782A280CD102231A02D44929
:103970005000FFF70BFA3E49087008460178D1A0C5
:10398000FCF750FC3A4800782A2811D10221C1489E
:103990009030FCF747FC02231A02A4495000FEF7BE
:1039A00003FE3349087008460178D1A0FCF73AFCC1
:1039B0002F4800782A2818D10221B648EC30FCF7AD
:1039C00031FC4FF0000004460AE0984850F824000B
:1039D00002462146A1A0FCF725FC04F101000446A3
:1039E000FF2CF2D98FA0FCF71DFC39E04FF4805179
:1039F000CA48FDF7D2FA4FF40051C848FDF7CDFA96
:103A00004FF48041C548FDF7C8FA4FF40041C34860
:103A1000FDF7C3FAC248FDF7DAF8C148FDF7D7F859
:103A2000C048FDF7D4F84FF48051BC48FDF7B3FA15
:103A30004FF40051B948FDF7AEFA4FF48041B74852
:103A4000FDF7A9FA4FF40041B448FDF7A4FAB448D1
:103A5000FDF7BDF8B248FDF7BAF8B248FDF7B7F880
:103A6000C4E7000000180140383D000800000020B5
:103A700007000020202020200D0A0D0A30312E20C2
:103A80002D2D2D2D2D2053445F496E6974205374C4
:103A9000617475733A25640D0A000000202020200F
:103AA000202020202020496E697469616C697A6544
:103AB000205344206361726420737563636573737C
:103AC00066756C6C79210D0A0D0A00004C0000200F
:103AD00030322E202D2D2D2D2D2053445F4765741F
:103AE00043617264496E666F205374617475733AF2
:103AF00025640D0A0000000030332E202D2D2D2DC1
:103B00002D2053445F53656C656374446573656C25
:103B1000656374205374617475733A25640D0A00EB
:103B20002020202020202020202053656C656374F5
:103B300020534420636172642073756363657373FB
:103B400066756C6C79210D0A0D0A000030342E2048
:103B50002D2D2D2D2D2053445F456E61626C6557D0
:103B60006964654275734F7065726174696F6E2028
:103B70005374617475733A25640D0A002020202067
:103B8000202020202020456E61626C6520776964CA
:103B90006520627573206F7065726174696F6E2045
:103BA0007375636365737366756C6C79210D0A0DAB
:103BB0000A00000030352E202D2D2D2D2D205344B0
:103BC0005F4572617365205374617475733A25643F
:103BD0000D0A000030362E202D2D2D2D2D20534482
:103BE0005F5365744465766963654D6F6465205302
:103BF00074617475733A25640D0A0000202020203A
:103C000020202020202053657420534420636172BB
:103C100064206D6F64652073756363657373667587
:103C20006C6C79210D0A0D0A000000009C08002030
:103C300030372E202D2D2D2D2D2053445F526561C0
:103C4000644D756C7469426C6F636B73205374615F
:103C50007475733A25640D0A00000000253032782F
:103C60003A30782530387820000000009C00002091
:103C700030382E202D2D2D2D2D2053445F57726965
:103C80007465426C6F636B205374617475733A256D
:103C9000640D0A00843E00089C02002030392E206A
:103CA0002D2D2D2D2D2053445F52656164426C6F84
:103CB000636B205374617475733A25640D0A0000B8
:103CC0009C04002031302E202D2D2D2D2D205344ED
:103CD0005F57726974654D756C7469426C6F636B84
:103CE00073205374617475733A25640D0A000000E3
:103CF00031312E202D2D2D2D2D2053445F52656105
:103D0000644D756C7469426C6F636B73205374619E
:103D10007475733A25640D0A00000000000C014020
:103D2000FFFF0F00FFFF050010B5FCF7C9FC4FF0C7
:103D30000001016010BD0000202020200D0A0D0AA6
:103D4000205741524E494E473A205448495320503B
:103D5000524F434553532057494C4C2045524153F1
:103D600045205448452053442043415244210D0AE4
:103D70002050726573732027792720746F20636F3A
:103D80006E74696E75652E00202020202020202072
:103D90002020476574205344206361726420696E5B
:103DA000666F6D6174696F6E20737563636573739D
:103DB00066756C6C79210D0A20202020202020209F
:103DC0002020426C6F636B2073697A653A25782CEA
:103DD000204361726420747970653A25780D0A0D6C
:103DE0000A000000202020202020202020204572D2
:103DF00061736520626C6F636B202564207375634B
:103E00006365737366756C6C79210D0A2020202020
:103E1000202020202020416C6C2074686520646183
:103E2000746120697320307830300D0A0D0A00006B
:103E30002020202020202020202052656164203274
:103E400020626C6F636B732066726F6D20626C6FA3
:103E5000636B2025642073756365737366756C6C82
:103E600079210D0A20202020202020202020416CB4
:103E70006C2074686520646174612069733A0D0A6E
:103E80000000000020202020202020202020577229
:103E900069746520626C6F636B20256420737563A1
:103EA0006365737366756C6C79210D0A2020202080
:103EB000202020202020416C6C20746865206461E3
:103EC000746120697320307838380D0A0D0A0000BB
:103ED00020202020202020202020526561642062A4
:103EE0006C6F636B20256420737563636573736601
:103EF000756C6C79210D0A202020202020202020A4
:103F000020416C6C20746865206461746120697361
:103F10003A0D0A0020202020202020202020577247
:103F2000697465203220626C6F636B732066726FF8
:103F30006D20626C6F636B2025642073756363650D
:103F4000737366756C6C79210D0A20202020202067
:103F500020202020416C6C207468652064617461AD
:103F600020697320307836360D0A0D0A00000000F3
:103F70002020202020202020202052656164203233
:103F800020626C6F636B732066726F6D20626C6F62
:103F9000636B202564207375636365737366756C4A
:103FA0006C790D0A20202020202020202020416C28
:103FB0006C2074686520646174612069733A0D0A2D
:103FC0000030313233343536373839414243444595
:103FD0004640305800303132333435363738396165
:103FE00062636465664030780004000008000000E9
:103FF0000000000002000100001000001C4000084A
:10400000000000204C0000006C010008684000081F
:104010004C0000201413000088010008000000007C
:104020000000002A00000000000000000000000066
:10403000000000000200000000000000000000007E
:104040002A00000000000000000000000000000046
:10405000000000000000000001020304010203044C
:08406000060708090204060826
:0400000508000131BD
:00000001FF
